:100000000C942A000C9434000C9434000C943400AA
:100010000C9434000C9434000C9434000C94340090
:100020000C9434000C9434000C9434000C94340080
:100030000C9434000C9434000C9434000C94340070
:100040000C9434000C9434000C9434000C94340060
:100050000C94340011241FBECFE5D4E0DEBFCDBF29
:100060000E9436000C9464000C9400008FEF81BB5A
:1000700012BA81E082BB2FE382E49FE021508040EE
:100080009040E1F700C0000082B3825082BB82E062
:1000900082BB2FE181EA97E0215080409040E1F758
:1000A00000C0000082B3835082BB84E082BB2FE398
:1000B00082E49FE0215080409040E1F700C00000C2
:0C00C00082B3855082BBD5CFF894FFCFEF
:00000001FF
